:100000000C9446000C9467000C9465000C947700E7
:100010000C9465000C9465000C9465000C946500CC
:100020000C9465000C9465000C9465000C946500BC
:100030000C94DA000C941E010C9465000C9465007D
:100040000C9465000C9465000C9465000C9465009C
:100050000C9465000C9465000C9465000C9465008C
:100060000C9467010C9465000C9465000C94650079
:100070000C9465000C9465000C9465000C9465006C
:100080000C9465000C9465000C94650011241FBE4F
:10009000CFEFDFE0DEBFCDBF11E0A0E0B1E0E8E4EC
:1000A000F9E000E00BBF02C007900D92A230B1074B
:1000B000D9F711E0A2E0B1E001C01D92A630B1076E
:1000C000E1F70E94E0010C94A2040C9400001F923E
:1000D0000F920FB60F921124DF93CF93CDB7DEB7F7
:1000E000CF91DF910F900FBE0F901F9018951F9228
:1000F0000F920FB60F9200905B000F9211242F9376
:100100003F938F939F93EF93FF93DF93CF93CDB75D
:10011000DEB7809103019091040101969093040150
:1001200080930301809100019091010101979093C8
:1001300001018093000180910001909101010097DD
:1001400081F485E690E025E630E0F9012081226027
:10015000FC01208387E290E09093010180930001ED
:1001600019C080910001909101018130910591F4B5
:10017000809102018F5F809302018091020187309C
:1001800048F485E690E025E630E0F90120812D7FF6
:10019000FC012083CF91DF91FF91EF919F918F918F
:1001A0003F912F910F9000925B000F900FBE0F9028
:1001B0001F9018951F920F920FB60F9200905B0040
:1001C0000F9211242F933F938F939F93EF93FF935D
:1001D000DF93CF93CDB7DEB78AE490E0FC012081B6
:1001E000318186E490E0FC0180819181029728179B
:1001F000390758F48AE490E0FC01208131812F5FB7
:100200003F4FFC013183208309C087E590E027E55B
:1002100030E0F90120812F7EFC012083CF91DF9116
:10022000FF91EF919F918F913F912F910F900092AD
:100230005B000F900FBE0F901F9018951F920F92AA
:100240000FB60F9200905B000F9211242F933F93F3
:100250008F939F93EF93FF93DF93CF93CDB7DEB749
:1002600088E490E0FC012081318186E490E0FC018B
:100270008081918102972817390758F488E490E02B
:10028000FC01208131812F5F3F4FFC0131832083AE
:100290000EC087E590E027E530E0F9012081277F57
:1002A000FC01208386E590E028E0FC012083CF91CB
:1002B000DF91FF91EF919F918F913F912F910F903F
:1002C00000925B000F900FBE0F901F9018951F9229
:1002D0000F920FB60F9200905B000F9211242F9394
:1002E0003F938F939F93EF93FF93DF93CF93CDB77C
:1002F000DEB780910501882361F188E790E0FC0179
:10030000808191818B30910558F088E790E0FC0165
:100310002081318121503040FC013183208340C055
:1003200088E790E0FC012081318121503040FC01C0
:10033000318320838DE790E02DE730E0F9012081C3
:100340002E7FFC0120838CE790E021E0FC012083DC
:1003500027C088E790E0FC012081318186E490E0AD
:10036000FC018081918102972817390758F488E7AA
:1003700090E0FC01208131812F5F3F4FFC013183F0
:1003800020830EC08DE790E02DE730E0F901208159
:100390002E7FFC0120838CE790E021E0FC0120838C
:1003A000CF91DF91FF91EF919F918F913F912F918D
:1003B0000F9000925B000F900FBE0F901F9018954A
:1003C000DF93CF930F92CDB7DEB719820E944F040F
:1003D00078940E949B030E94DF0201C0000083E327
:1003E00090E0FC018081882F90E0807190700097F0
:1003F000A9F389818F5F89838981823050F0898157
:10040000873038F40E94C5030E941A020E94DF025E
:1004100006C08981873010F0198201C0000083E393
:1004200090E0FC018081882F90E0807190700097AF
:10043000B1F7D5CFDF93CF930F92CDB7DEB7198247
:1004400010920401109203018BE090E0909301015F
:10045000809300011092020189E390E0FC01808109
:10046000882F90E080719070009709F44EC089E366
:1004700090E0FC018081882F90E08F7D009709F447
:1004800044C085E690E025E630E0F9012081216056
:10049000FC01208381E08983CE0101960E94330311
:1004A000000089E390E0FC018081282F30E089E39F
:1004B00090E0FC018081882F90E0AC014F7D81E0CD
:1004C00090E04115510511F480E090E082239323E0
:1004D000009739F78AE690E020E2FC01208388E566
:1004E00090E024E0FC01208389E590E024E0FC0119
:1004F0002083000089E390E0FC018081882F90E058
:10050000807290700097B1F350C089E390E0FC01D5
:100510008081882F90E08F7E009709F446C089E3A0
:1005200090E0FC018081882F90E0807290700097AD
:10053000E1F185E690E025E630E0F90120812E7FAB
:10054000FC0120831982CE0101960E943303000032
:1005500089E390E0FC018081882F90E08F7E0097F6
:1005600051F089E390E0FC018081882F90E0807257
:100570009070009769F78AE690E020E2FC01208302
:1005800088E590E024E0FC01208389E590E024E008
:10059000FC012083000089E390E0FC018081882F2A
:1005A00090E0807190700097B1F30E94FA0389E5A2
:1005B00090E0FC0110820F90CF91DF910895DF93BE
:1005C000CF93CDB7DEB788E390E028E330E0F901C0
:1005D0002081277FFC01208382E390E022E330E04A
:1005E000F90120812F7BFC01208385E390E025E346
:1005F00030E0F90120812260FC0120838FE490E04B
:100600002FE430E0F90120812262FC0120838EE496
:1006100090E02EE430E0F90120812961FC01208383
:1006200086E490E024EA32E0FC013183208388E410
:1006300090E021E030E0FC013183208386E590E00A
:1006400026E530E0F90120812860FC01208387E560
:1006500090E027E530E0F90120812860FC0120834B
:10066000CF91DF910895DF93CF9300D0CDB7DEB760
:100670009A8389831092050188E390E028E330E0B3
:10068000F90120812F7EFC01208382E390E022E3A8
:1006900030E0F90120812F77FC01208389819A8144
:1006A000FC018081882351F085E390E025E330E070
:1006B000F90120812460FC01208309C085E390E0DA
:1006C00025E330E0F90120812B7FFC0120838FE4BA
:1006D00090E02FE430E0F90120812A60FC012083C2
:1006E0008EE490E02EE430E0F90120812961FC01E4
:1006F000208386E490E024EA32E0FC013183208309
:1007000088E790E021E030E0FC01318320838CE732
:1007100090E02CE730E0F90120812160FC0120838A
:100720008DE790E021E0FC01208378940F900F90FA
:10073000CF91DF910895DF93CF9300D0CDB7DEB78F
:1007400081E08A83198289E390E0FC0180819981AC
:10075000892789838981807289838981882381F4AB
:10076000CE0102960E94330306C089E390E0FC01AB
:1007700080818072898389818823B9F30E94FA037A
:100780000F900F90CF91DF910895DF93CF93CDB766
:10079000DEB78FE490E02FE430E0F90120812F797B
:1007A000FC01208387E590E027E530E0F901208116
:1007B000277FFC01208386E590E028E0FC01208370
:1007C00088E490E0FC011182108288E390E028E345
:1007D00030E0F90120812F7BFC01208388E390E049
:1007E00028E330E0F90120812860FC012083CF91CB
:1007F000DF910895DF93CF93CDB7DEB781E080938B
:1008000005018CE790E02CE730E0F90120812160C0
:10081000FC0120838DE790E021E0FC0120830000B3
:1008200088E790E0FC01808191818A309105C0F7D2
:10083000109205018FE490E02FE430E0F90120816F
:10084000237FFC0120838DE790E02DE730E0F90164
:1008500020812E7FFC0120838CE790E02CE730E0A4
:10086000F90120812E7FFC01208388E790E0FC01C4
:100870001182108288E390E028E330E0F9012081C2
:100880002F77FC01208382E390E022E330E0F9013E
:1008900020812068FC012083CF91DF910895DF93B0
:1008A000CF93CDB7DEB78AE390E0FC0110828BE3F3
:1008B00090E02FEFFC01208387E390E02CEFFC0118
:1008C000208388E390E02FEFFC01208388E390E011
:1008D00028E330E0F90120812F71FC01208384E3BB
:1008E00090E027E0FC01208385E390E02FEFFC01FE
:1008F000208381E390E020EEFC01208382E390E0FE
:100900002FEFFC01208382E290E0FC01108283E261
:1009100090E02FEFFC01208381E690E0FC01108243
:1009200082E690E02FEFFC01208384E690E023E054
:10093000FC01208385E690E02FEFFC012083CF911E
:08094000DF910895F894FFCF48
:020948000B00A2
:00000001FF
