:100000000C9446000C9467000C9471000C948800CA
:100010000C9465000C9465000C9465000C946500CC
:100020000C9465000C9465000C9465000C946500BC
:100030000C94C7000C94EA000C9465000C946500C5
:100040000C9465000C9465000C9465000C9465009C
:100050000C9465000C9465000C9465000C9465008C
:100060000C9425010C9465000C9465000C946500BB
:100070000C9465000C9465000C9465000C9465006C
:100080000C9465000C9465000C94650011241FBE4F
:10009000CFEFD0E1DEBFCDBF11E0A0E0B1E0E8E2FC
:1000A000F6E000E00BBF02C007900D92A230B1074E
:1000B000D9F711E0A2E0B1E001C01D92A930B1076B
:1000C000E1F70E949D020C9412030C9400001F9211
:1000D0000F920FB60F9211240F900FBE0F901F902A
:1000E00018951F920F920FB60F9211248F939F9322
:1000F00080910601909107010196909307018093EA
:1001000006019F918F910F900FBE0F901F90189531
:100110001F920F920FB60F9211248F939F9380918D
:1001200003019091040101969093040180930301CF
:1001300080910001909101010197909301018093BA
:100140000001009761F480916500826080936500F2
:1001500089E290E0909301018093000111C0813009
:10016000910571F4809102018F5F8093020180916B
:100170000201873028F4809165008D7F80936500AF
:100180009F918F910F900FBE0F901F9018951F9207
:100190000F920FB60F9211242F933F938F939F933B
:1001A0002AB53BB586B597B502972817390730F4BD
:1001B0008AB59BB501969BBD8ABD03C087B78F7E6C
:1001C00087BF9F918F913F912F910F900FBE0F90FE
:1001D0001F9018951F920F920FB60F9211242F9314
:1001E0003F938F939F9380910501882379F088B581
:1001F00099B58B30910520F088B599B5019711C05C
:1002000088B599B5019799BD88BD0EC028B539B597
:1002100086B597B502972817390730F488B599B590
:10022000019699BD88BD08C080917D00877F80932D
:100230007D0088E080937C009F918F913F912F916A
:100240000F900FBE0F901F9018951F920F920FB630
:100250000F9211242F933F938F939F9380910501C9
:100260008823B9F080917800909179008B309105C6
:1002700030F08091780090917900019719C08091B9
:10028000780090917900019790937900809378009D
:1002900014C0209178003091790086B597B5029707
:1002A0002817390750F480917800909179000196D1
:1002B000909379008093780008C080917D008E7FB4
:1002C00080937D0081E080937C009F918F913F918E
:1002D0002F910F900FBE0F901F901895109205014F
:1002E000C3989698A99A8FB582628FBD8EB58961A1
:1002F0008EBD84EA92E097BD86BD81E090E099BD15
:1003000088BD86B7886086BF87B7886087BFF89446
:100310008CE080936A0082E089BF88BF789408955A
:1003200010920501C4989798FC018081882311F0F0
:10033000AA9A01C0AA988FB58A608FBD8EB58961CF
:100340008EBD84EA92E097BD86BD81E090E09093F7
:1003500079008093780080917C00816080937C009C
:1003600081E080937D0078940895F89489B78E7F1A
:1003700089BF88B78E7F88BF789491E090930501FC
:1003800080917C00816080937C0090937D0088B593
:1003900099B58A309105D8F7109205018FB58F79FC
:1003A0008FBD87B7877F87BF88E086BF19BC18BC21
:1003B000C698969A089591E09093050180917C00EB
:1003C000816080937C0090937D0080917800909173
:1003D00079008A309105C8F7109205018FB5837FA7
:1003E0008FBD80917D008E7F80937D0080917C0009
:1003F0008E7F80937C001092790010927800C798CD
:10040000979A0895DF93CF930F92CDB7DEB781E02F
:10041000898389B385FD09C0CE0101960E949001B0
:1004200089B385FFFDCF0E94DB010F90CF91DF9153
:100430000895DF93CF930F92CDB7DEB71982109254
:100440000401109203018BE090E0909301018093EE
:10045000000110920201CC9B27C089B38F7D21F14E
:100460008091650081608093650081E08983CE0181
:1004700001960E94900110920801CC99FECFCD996F
:10048000FCCF80E280936A0084E088BF89BF07C008
:100490008F5F80930801CD9902C01092080180916E
:1004A00008018A30A8F328C089B38F7E19F1CD9B4B
:1004B00021C0809165008E7F809365001982CE01F6
:1004C00001960E949001CC99FECFCD99FCCF80E29D
:1004D00080936A0084E088BF89BF05C08F5F8093E6
:1004E0000801CC9902C010920801809108018A305D
:1004F000A8F302C00E9402020E94DB010F90CF917C
:10050000DF9108951ABA8FEF8BBB9CEF97BB88BB26
:1005100098B39F7198BB97E094BB85BB90EE91BB5D
:1005200082BB12B883B9109261008093620093E09D
:10053000909364008093650008950F931F93DF9359
:10054000CF930F92CDB7DEB719820E9482027894C2
:100550000E9402020E946E010BE010E0F894C89B1A
:1005600016C080910601909107018536910508F427
:1005700045C078940E94B501F8941092070110923A
:10058000060178940E9419020E946E0137C09C9B5C
:1005900035C080910601909107018630910570F178
:1005A00089818F5F8983F8948981823018F08981ED
:1005B000873010F0C99B0EC078940E94B5010E944C
:1005C0001902F894109207011092060178940E9483
:1005D0006E01F8948981863070F0789400000000F4
:1005E000F8941982109307010093060104C07894CF
:1005F00000000000F8949C99FACF7894F8948091C8
:1006000006019091070123E0893E920728F01982A4
:100610001093070100930601789400000000000089
:0806200000009CCFF894FFCF0D
:020628000B00C5
:00000001FF
