:100000000C9446000C9468000C9472000C949300BD
:100010000C9466000C9466000C9466000C946600C8
:100020000C9466000C9466000C9466000C946600B8
:100030000C94D2000C94F5000C9466000C946600AD
:100040000C9466000C9466000C9466000C94660098
:100050000C9466000C9466000C9466000C94660088
:100060000C9430010C9466000C9466000C946600AD
:100070000C9466000C9466000C9466000C94660068
:100080000C9466000C9466000C94660011241FBE4C
:10009000CFEFD0E1DEBFCDBF11E0A0E0B1E0EAEEEE
:1000A000F5E000E00BBF02C007900D92A230B1074F
:1000B000D9F71BBE11E0A2E0B1E001C01D92A9304A
:1000C000B107E1F70E94A9020C94F3020C9400001E
:1000D0001F920F920FB60F9211240F900FBE0F9028
:1000E0001F9018951F920F920FB60F9211242F9305
:1000F0008F939F93809103019091040101969093B7
:1001000004018093030123E0893E920720F01092BE
:100110000401109203019F918F912F910F900FBEB8
:100120000F901F9018951F920F920FB60F921124E7
:100130008F939F9380910601909107010196909370
:1001400007018093060180910001909101010197C0
:100150009093010180930001009761F48091650004
:1001600082608093650089E290E090930101809322
:10017000000111C08130910571F4809108018F5FF9
:100180008093080180910801873028F480916500F0
:100190008D7F809365009F918F910F900FBE0F9080
:1001A0001F9018951F920F920FB60F9211242F9344
:1001B0003F938F939F932AB53BB586B597B502972A
:1001C0002817390730F48AB59BB501969BBD8ABDC7
:1001D00003C087B78F7E87BF9F918F913F912F91EB
:1001E0000F900FBE0F901F9018951F920F920FB691
:1001F0000F9211242F933F938F939F93809105012A
:10020000882379F088B599B58B30910520F088B5B1
:1002100099B5019711C088B599B5019799BD88BD69
:100220000EC028B539B586B597B502972817390796
:1002300030F488B599B5019699BD88BD08C0809104
:100240007D00877F80937D0088E080937C009F9174
:100250008F913F912F910F900FBE0F901F90189587
:100260001F920F920FB60F9211242F933F938F93EB
:100270009F93809105018823B9F080917800909137
:1002800079008B30910530F0809178009091790061
:10029000019719C08091780090917900019790930F
:1002A00079008093780014C0209178003091790013
:1002B00086B597B502972817390750F480917800D2
:1002C000909179000196909379008093780008C00E
:1002D00080917D008E7F80937D0081E080937C0003
:1002E0009F918F913F912F910F900FBE0F901F9074
:1002F000189510920501C3989698A99A8FB58262B5
:100300008FBD8EB589618EBD84EA92E097BD86BDB2
:1003100081E090E099BD88BD86B7886086BF87B7C9
:10032000886087BFF89488E080936A0082E089BF84
:1003300088BF7894089510920501C4989798FC019D
:100340008081882311F0AA9A01C0AA988FB58A608B
:100350008FBD8EB589618EBD84EA92E097BD86BD62
:1003600081E090E0909379008093780080917C0008
:10037000816080937C0081E080937D007894089573
:10038000F89489B78E7F89BF88B78E7F88BF7894AD
:1003900091E09093050180917C00816080937C00C6
:1003A00090937D0088B599B58A309105D8F7109261
:1003B00005018FB58F798FBD87B7877F87BF88E0AD
:1003C00086BF19BC18BCC698969A089591E0909380
:1003D000050180917C00816080937C0090937D007A
:1003E00080917800909179008A309105C8F7109239
:1003F00005018FB5837F8FBD80917D008E7F8093B7
:100400007D0080917C008E7F80937C00109279002B
:1004100010927800C798979A0895CF93DF930F9220
:10042000CDB7DEB781E0898389B385FD09C0CE01F0
:1004300001960E949B0189B385FFFDCF0E94E601D2
:100440000F90DF91CF910895CF93DF930F92CDB7A7
:10045000DEB7198210920701109206018BE090E03E
:10046000909301018093000110920801CC9B27C05A
:1004700089B38F7D21F18091650081608093650053
:1004800081E08983CE0101960E949B0110920201B6
:10049000CC99FECFCD99FCCF80E280936A0084E0B6
:1004A00088BF89BF07C08F5F80930201CD9902C0CA
:1004B00010920201809102018A30A8F328C089B30A
:1004C0008F7E19F1CD9B21C0809165008E7F809336
:1004D00065001982CE0101960E949B01CC99FECF46
:1004E000CD99FCCF80E280936A0084E088BF89BF09
:1004F00005C08F5F80930201CC9902C01092020167
:10050000809102018A30A8F302C00E940D020E946D
:10051000E60119BE0F90DF91CF9108951ABA8FEFBF
:100520008BBB9CEF97BB88BB98B39F7198BB97E040
:1005300094BB85BB90EE91BB82BB12B883B910927D
:1005400061008093620093E0909364008093650063
:1005500008950E948E0278940E940D020E947901F3
:10056000C0E09C9B21C0DC2FDF5FC150C53010F084
:10057000C99B0DC00E94C0010E942402F8941092F1
:1005800004011092030178940E94790102C0D730CF
:1005900010F4CD2F01C0C0E08091030190910401BF
:1005A0009C99FECF0097E1F3C89B13C08091030193
:1005B000909104018536910560F00E94C001F89485
:1005C000109204011092030178940E9424020E9468
:1005D0007901809103019091040121E08D3292070D
:0A05E00008F0BECFBECFF894FFCFA5
:0205EA000B0004
:00000001FF
