:100000000C9446000C9467000C9477000C94A400A8
:100010000C9465000C9465000C9465000C946500CC
:100020000C9465000C9465000C9465000C946500BC
:100030000C9407010C944B010C9465000C94650022
:100040000C9465000C9465000C9465000C9465009C
:100050000C9465000C9465000C9465000C9465008C
:100060000C94C4010C9465000C9465000C9465001C
:100070000C9465000C9465000C9465000C9465006C
:100080000C9465000C9465000C94650011241FBE4F
:10009000CFEFD0E1DEBFCDBF11E0A0E0B1E0ECE7F3
:1000A000FBE000E00BBF02C007900D92A230B10749
:1000B000D9F711E0A2E0B1E001C01D92A930B1076B
:1000C000E1F70E943D020C94BC050C9400001F92C5
:1000D0000F920FB60F921124DF93CF93CDB7DEB7F7
:1000E000CF91DF910F900FBE0F901F9018951F9228
:1000F0000F920FB60F9211242F938F939F93DF933C
:10010000CF93CDB7DEB7809106019091070101969C
:100110009093070180930601809106019091070159
:1001200023E0893E920730F086E391E09093070147
:1001300080930601CF91DF919F918F912F910F9026
:100140000FBE0F901F9018951F920F920FB60F922F
:1001500000905B000F9211242F933F938F939F93F6
:10016000EF93FF93DF93CF93CDB7DEB78091030179
:100170009091040101969093040180930301809172
:10018000000190910101019790930101809300017A
:100190008091000190910101009781F485E690E043
:1001A00025E630E0F90120812260FC01208389E20C
:1001B00090E0909301018093000119C080910001AB
:1001C000909101018130910591F4809102018F5F3E
:1001D0008093020180910201873048F485E690E027
:1001E00025E630E0F90120812D7FFC012083CF91AD
:1001F000DF91FF91EF919F918F913F912F910F9000
:1002000000925B000F900FBE0F901F9018951F92E9
:100210000F920FB60F9200905B000F9211242F9354
:100220003F938F939F93EF93FF93DF93CF93CDB73C
:10023000DEB78AE490E0FC012081318186E490E021
:10024000FC018081918102972817390758F48AE4CC
:1002500090E0FC01208131812F5F3F4FFC01318311
:10026000208309C087E590E027E530E0F90120818F
:100270002F7EFC012083CF91DF91FF91EF919F9121
:100280008F913F912F910F9000925B000F900FBEC6
:100290000F901F9018951F920F920FB60F9200901B
:1002A0005B000F9211242F933F938F939F93EF93B3
:1002B000FF93DF93CF93CDB7DEB7809105018823FD
:1002C00061F188E490E0FC01808191818B3091059F
:1002D00058F088E490E0FC012081318121503040C9
:1002E000FC013183208340C088E490E0FC01208140
:1002F000318121503040FC01318320838DE790E033
:100300002DE730E0F9012081277FFC0120838CE775
:1003100090E028E0FC01208327C088E490E0FC0105
:100320002081318186E490E0FC01808191810297F7
:100330002817390758F488E490E0FC0120813181C6
:100340002F5F3F4FFC01318320830EC08DE790E08B
:100350002DE730E0F9012081277FFC0120838CE725
:1003600090E028E0FC012083CF91DF91FF91EF9195
:100370009F918F913F912F910F9000925B000F9072
:100380000FBE0F901F9018951F920F920FB60F92ED
:1003900000905B000F9211242F933F938F939F93B4
:1003A000EF93FF93DF93CF93CDB7DEB78091050135
:1003B000882361F188E790E0FC01808191818B3096
:1003C000910558F088E790E0FC01208131812150AF
:1003D0003040FC013183208340C088E790E0FC017D
:1003E0002081318121503040FC01318320838DE711
:1003F00090E02DE730E0F90120812E7FFC01208381
:100400008CE790E021E0FC01208327C088E790E0A2
:10041000FC012081318186E490E0FC0180819181A2
:1004200002972817390758F488E790E0FC012081EB
:1004300031812F5F3F4FFC01318320830EC08DE758
:1004400090E02DE730E0F90120812E7FFC01208330
:100450008CE790E021E0FC012083CF91DF91FF91B8
:10046000EF919F918F913F912F910F9000925B00A0
:100470000F900FBE0F901F901895DF93CF930F92A0
:10048000CDB7DEB719820E94690578940E94850471
:100490000E94B603F89489E390E0FC018081882FE4
:1004A00090E0817090708823B1F080910601909166
:1004B00007018536910508F468C078940E94AF045E
:1004C000F894109207011092060178940E94DB02C2
:1004D0000E94B6035AC083E390E0FC018081882F1C
:1004E00090E080719070009709F44FC080910601F0
:1004F000909107018630910508F447C089818F5F8C
:100500008983F8948981823018F08981873050F08E
:1005100089E390E0FC018081882F90E082709070E8
:10052000009771F078940E94AF040E94DB02F89467
:10053000109207011092060178940E94B60313C02E
:100540008981873078F0789400000000F89419824F
:10055000109207011092060106C078940000000076
:10056000F89401C0000080910601909107018A3043
:10057000910598F383E390E0FC018081882F90E05F
:1005800080719070009749F77894F89480910601F3
:1005900090910701F1E08D329F0738F019828BE0CE
:1005A00090E090930701809306017894000000008A
:1005B000000000006FCFDF93CF930F92CDB7DEB76F
:1005C000198210920401109203018BE090E0909345
:1005D0000101809300011092020189E390E0FC0187
:1005E0008081882F90E080719070009709F456C048
:1005F00089E390E0FC018081882F90E08F7D009757
:1006000009F44CC085E690E025E630E0F901208150
:100610002160FC01208381E08983CE0101960E9444
:100620001D0410920801000089E390E0FC01808124
:10063000882F90E0807190700097B1F789E390E087
:10064000FC018081882F90E080729070009761F7A4
:100650008AE690E020E2FC01208388E590E024E037
:10066000FC01208389E590E024E0FC01208311C097
:10067000809108018F5F8093080189E390E0FC017D
:100680008081882F90E080729070009711F4109212
:100690000801809108018A3058F362C089E390E034
:1006A000FC018081882F90E08F7E009709F456C06E
:1006B00089E390E0FC018081882F90E08072907047
:1006C000009709F44BC085E690E025E630E0F9019B
:1006D00020812E7FFC0120831982CE0101960E9489
:1006E0001D04000089E390E0FC018081882F90E0E8
:1006F000807190700097B1F789E390E0FC018081F0
:10070000882F90E080729070009761F78AE690E001
:1007100020E2FC01208388E590E024E0FC012083B6
:1007200089E590E024E0FC0120831092080111C0CB
:10073000809108018F5F8093080189E390E0FC01BC
:100740008081882F90E080719070009711F4109252
:100750000801809108018A3058F302C00E94850484
:100760000E9414050F90CF91DF910895DF93CF93EE
:10077000CDB7DEB71092050188E390E028E330E0C2
:10078000F9012081277FFC01208382E390E022E3AE
:1007900030E0F90120812F7BFC01208385E390E08C
:1007A00025E330E0F90120812260FC0120838FE401
:1007B00090E02FE430E0F90120812262FC012083E7
:1007C0008EE490E02EE430E0F90120812961FC0103
:1007D000208386E490E024EA32E0FC013183208328
:1007E00088E490E021E030E0FC013183208386E55D
:1007F00090E026E530E0F90120812860FC012083AB
:1008000087E590E027E530E0F90120812860FC01D0
:100810002083F8948AE690E02CE0FC01208389E5AF
:1008200090E022E0FC01208388E590E022E0FC01DA
:1008300020837894CF91DF910895DF93CF9300D0F8
:10084000CDB7DEB79A8389831092050188E390E0E3
:1008500028E330E0F90120812F7EFC01208382E330
:1008600090E022E330E0F90120812F77FC01208322
:1008700089819A81FC018081882351F085E390E091
:1008800025E330E0F90120812460FC01208309C0C8
:1008900085E390E025E330E0F90120812B7FFC0126
:1008A00020838FE490E02FE430E0F90120812A607A
:1008B000FC0120838EE490E02EE430E0F9012081F9
:1008C0002961FC01208386E490E024EA32E0FC0107
:1008D0003183208388E790E021E030E0FC01318320
:1008E00020838CE790E02CE730E0F9012081216043
:1008F000FC0120838DE790E021E0FC0120837894C7
:100900000F900F90CF91DF910895DF93CF9300D098
:10091000CDB7DEB781E08A83198289E390E0FC01DC
:1009200080819981892789838981807289838981DE
:10093000882381F4CE0102960E941D0406C089E33B
:1009400090E0FC0180818072898389818823B9F3DA
:100950000E9414050F900F90CF91DF910895DF93BF
:10096000CF93CDB7DEB7F89489E590E029E530E084
:10097000F90120812E7FFC01208388E590E028E5A5
:1009800030E0F90120812E7FFC012083789481E002
:10099000809305018CE790E02CE730E0F90120819D
:1009A0002160FC0120838DE790E021E0FC012083A1
:1009B000000088E490E0FC01808191818A309105FB
:1009C000C0F7109205018FE490E02FE430E0F901C8
:1009D00020812F79FC01208387E590E027E530E036
:1009E000F9012081277FFC01208386E590E028E043
:1009F000FC01208388E490E0FC011182108288E3EE
:100A000090E028E330E0F90120812F7BFC01208376
:100A100082E390E022E330E0F90120812064FC01D0
:100A20002083CF91DF910895DF93CF93CDB7DEB7C9
:100A300081E0809305018CE790E02CE730E0F9013C
:100A400020812160FC0120838DE790E021E0FC0102
:100A50002083000088E790E0FC01808191818A304A
:100A60009105C0F7109205018FE490E02FE430E08B
:100A7000F9012081237FFC0120838DE790E02DE7A1
:100A800030E0F90120812E7FFC0120838CE790E08B
:100A90002CE730E0F90120812E7FFC01208388E7DC
:100AA00090E0FC011182108288E390E028E330E0BE
:100AB000F90120812F77FC01208382E390E022E37B
:100AC00030E0F90120812068FC012083CF91DF9183
:100AD0000895DF93CF93CDB7DEB78AE390E0FC01B2
:100AE00010828BE390E02FEFFC01208387E390E0FE
:100AF0002CEFFC01208388E390E02FEFFC012083A2
:100B000088E390E028E330E0F90120812F71FC01B7
:100B1000208384E390E027E0FC01208385E390E0DC
:100B20002FEFFC01208381E390E020EEFC01208385
:100B300082E390E02FEFFC01208382E290E0FC0151
:100B4000108283E290E02FEFFC01208381E690E0A9
:100B5000FC01108282E690E02FEFFC01208384E606
:100B600090E023E0FC01208385E690E02FEFFC017C
:0C0B70002083CF91DF910895F894FFCF0F
:020B7C000B006C
:00000001FF
